{
  "_format": "hh-sol-artifact-1",
  "contractName": "MyEpicNFT",
  "sourceName": "contracts/MyEpicNFT.sol",
  "abi": [
    {
      "inputs": [],
      "stateMutability": "nonpayable",
      "type": "constructor"
    },
    {
      "anonymous": false,
      "inputs": [
        {
          "indexed": true,
          "internalType": "address",
          "name": "owner",
          "type": "address"
        },
        {
          "indexed": true,
          "internalType": "address",
          "name": "approved",
          "type": "address"
        },
        {
          "indexed": true,
          "internalType": "uint256",
          "name": "tokenId",
          "type": "uint256"
        }
      ],
      "name": "Approval",
      "type": "event"
    },
    {
      "anonymous": false,
      "inputs": [
        {
          "indexed": true,
          "internalType": "address",
          "name": "owner",
          "type": "address"
        },
        {
          "indexed": true,
          "internalType": "address",
          "name": "operator",
          "type": "address"
        },
        {
          "indexed": false,
          "internalType": "bool",
          "name": "approved",
          "type": "bool"
        }
      ],
      "name": "ApprovalForAll",
      "type": "event"
    },
    {
      "anonymous": false,
      "inputs": [
        {
          "indexed": false,
          "internalType": "address",
          "name": "sender",
          "type": "address"
        },
        {
          "indexed": false,
          "internalType": "uint256",
          "name": "tokenId",
          "type": "uint256"
        }
      ],
      "name": "NewEpicNFTMinted",
      "type": "event"
    },
    {
      "anonymous": false,
      "inputs": [
        {
          "indexed": true,
          "internalType": "address",
          "name": "from",
          "type": "address"
        },
        {
          "indexed": true,
          "internalType": "address",
          "name": "to",
          "type": "address"
        },
        {
          "indexed": true,
          "internalType": "uint256",
          "name": "tokenId",
          "type": "uint256"
        }
      ],
      "name": "Transfer",
      "type": "event"
    },
    {
      "inputs": [
        {
          "internalType": "address",
          "name": "to",
          "type": "address"
        },
        {
          "internalType": "uint256",
          "name": "tokenId",
          "type": "uint256"
        }
      ],
      "name": "approve",
      "outputs": [],
      "stateMutability": "nonpayable",
      "type": "function"
    },
    {
      "inputs": [
        {
          "internalType": "address",
          "name": "owner",
          "type": "address"
        }
      ],
      "name": "balanceOf",
      "outputs": [
        {
          "internalType": "uint256",
          "name": "",
          "type": "uint256"
        }
      ],
      "stateMutability": "view",
      "type": "function"
    },
    {
      "inputs": [
        {
          "internalType": "uint256",
          "name": "tokenId",
          "type": "uint256"
        }
      ],
      "name": "getApproved",
      "outputs": [
        {
          "internalType": "address",
          "name": "",
          "type": "address"
        }
      ],
      "stateMutability": "view",
      "type": "function"
    },
    {
      "inputs": [],
      "name": "getTotalNFTsMintedSoFar",
      "outputs": [
        {
          "internalType": "uint256",
          "name": "",
          "type": "uint256"
        }
      ],
      "stateMutability": "view",
      "type": "function"
    },
    {
      "inputs": [],
      "name": "getTotalSupply",
      "outputs": [
        {
          "internalType": "uint256",
          "name": "",
          "type": "uint256"
        }
      ],
      "stateMutability": "view",
      "type": "function"
    },
    {
      "inputs": [
        {
          "internalType": "address",
          "name": "owner",
          "type": "address"
        },
        {
          "internalType": "address",
          "name": "operator",
          "type": "address"
        }
      ],
      "name": "isApprovedForAll",
      "outputs": [
        {
          "internalType": "bool",
          "name": "",
          "type": "bool"
        }
      ],
      "stateMutability": "view",
      "type": "function"
    },
    {
      "inputs": [],
      "name": "makeAnEpicNFT",
      "outputs": [],
      "stateMutability": "nonpayable",
      "type": "function"
    },
    {
      "inputs": [],
      "name": "maxSupply",
      "outputs": [
        {
          "internalType": "uint256",
          "name": "",
          "type": "uint256"
        }
      ],
      "stateMutability": "view",
      "type": "function"
    },
    {
      "inputs": [],
      "name": "name",
      "outputs": [
        {
          "internalType": "string",
          "name": "",
          "type": "string"
        }
      ],
      "stateMutability": "view",
      "type": "function"
    },
    {
      "inputs": [
        {
          "internalType": "uint256",
          "name": "tokenId",
          "type": "uint256"
        }
      ],
      "name": "ownerOf",
      "outputs": [
        {
          "internalType": "address",
          "name": "",
          "type": "address"
        }
      ],
      "stateMutability": "view",
      "type": "function"
    },
    {
      "inputs": [
        {
          "internalType": "uint256",
          "name": "tokenId",
          "type": "uint256"
        }
      ],
      "name": "pickRandomColor",
      "outputs": [
        {
          "internalType": "string",
          "name": "",
          "type": "string"
        }
      ],
      "stateMutability": "view",
      "type": "function"
    },
    {
      "inputs": [
        {
          "internalType": "uint256",
          "name": "tokenId",
          "type": "uint256"
        }
      ],
      "name": "pickRandomFirstWord",
      "outputs": [
        {
          "internalType": "string",
          "name": "",
          "type": "string"
        }
      ],
      "stateMutability": "view",
      "type": "function"
    },
    {
      "inputs": [
        {
          "internalType": "uint256",
          "name": "tokenId",
          "type": "uint256"
        }
      ],
      "name": "pickRandomSecondWord",
      "outputs": [
        {
          "internalType": "string",
          "name": "",
          "type": "string"
        }
      ],
      "stateMutability": "view",
      "type": "function"
    },
    {
      "inputs": [
        {
          "internalType": "uint256",
          "name": "tokenId",
          "type": "uint256"
        }
      ],
      "name": "pickRandomThirdWord",
      "outputs": [
        {
          "internalType": "string",
          "name": "",
          "type": "string"
        }
      ],
      "stateMutability": "view",
      "type": "function"
    },
    {
      "inputs": [
        {
          "internalType": "address",
          "name": "from",
          "type": "address"
        },
        {
          "internalType": "address",
          "name": "to",
          "type": "address"
        },
        {
          "internalType": "uint256",
          "name": "tokenId",
          "type": "uint256"
        }
      ],
      "name": "safeTransferFrom",
      "outputs": [],
      "stateMutability": "nonpayable",
      "type": "function"
    },
    {
      "inputs": [
        {
          "internalType": "address",
          "name": "from",
          "type": "address"
        },
        {
          "internalType": "address",
          "name": "to",
          "type": "address"
        },
        {
          "internalType": "uint256",
          "name": "tokenId",
          "type": "uint256"
        },
        {
          "internalType": "bytes",
          "name": "_data",
          "type": "bytes"
        }
      ],
      "name": "safeTransferFrom",
      "outputs": [],
      "stateMutability": "nonpayable",
      "type": "function"
    },
    {
      "inputs": [
        {
          "internalType": "address",
          "name": "operator",
          "type": "address"
        },
        {
          "internalType": "bool",
          "name": "approved",
          "type": "bool"
        }
      ],
      "name": "setApprovalForAll",
      "outputs": [],
      "stateMutability": "nonpayable",
      "type": "function"
    },
    {
      "inputs": [
        {
          "internalType": "bytes4",
          "name": "interfaceId",
          "type": "bytes4"
        }
      ],
      "name": "supportsInterface",
      "outputs": [
        {
          "internalType": "bool",
          "name": "",
          "type": "bool"
        }
      ],
      "stateMutability": "view",
      "type": "function"
    },
    {
      "inputs": [],
      "name": "symbol",
      "outputs": [
        {
          "internalType": "string",
          "name": "",
          "type": "string"
        }
      ],
      "stateMutability": "view",
      "type": "function"
    },
    {
      "inputs": [
        {
          "internalType": "uint256",
          "name": "index",
          "type": "uint256"
        }
      ],
      "name": "tokenByIndex",
      "outputs": [
        {
          "internalType": "uint256",
          "name": "",
          "type": "uint256"
        }
      ],
      "stateMutability": "view",
      "type": "function"
    },
    {
      "inputs": [
        {
          "internalType": "address",
          "name": "owner",
          "type": "address"
        },
        {
          "internalType": "uint256",
          "name": "index",
          "type": "uint256"
        }
      ],
      "name": "tokenOfOwnerByIndex",
      "outputs": [
        {
          "internalType": "uint256",
          "name": "",
          "type": "uint256"
        }
      ],
      "stateMutability": "view",
      "type": "function"
    },
    {
      "inputs": [
        {
          "internalType": "uint256",
          "name": "tokenId",
          "type": "uint256"
        }
      ],
      "name": "tokenURI",
      "outputs": [
        {
          "internalType": "string",
          "name": "",
          "type": "string"
        }
      ],
      "stateMutability": "view",
      "type": "function"
    },
    {
      "inputs": [],
      "name": "totalSupply",
      "outputs": [
        {
          "internalType": "uint256",
          "name": "",
          "type": "uint256"
        }
      ],
      "stateMutability": "view",
      "type": "function"
    },
    {
      "inputs": [
        {
          "internalType": "address",
          "name": "from",
          "type": "address"
        },
        {
          "internalType": "address",
          "name": "to",
          "type": "address"
        },
        {
          "internalType": "uint256",
          "name": "tokenId",
          "type": "uint256"
        }
      ],
      "name": "transferFrom",
      "outputs": [],
      "stateMutability": "nonpayable",
      "type": "function"
    }
  ],
  "bytecode": "0x60806040526032600c5560405180610160016040528061012f815260200162004e8161012f9139600d90805190602001906200003d92919062000801565b506040518060c001604052806040518060400160405280600381526020017f526564000000000000000000000000000000000000000000000000000000000081525081526020016040518060400160405280600681526020017f59656c6c6f77000000000000000000000000000000000000000000000000000081525081526020016040518060400160405280600481526020017f477265790000000000000000000000000000000000000000000000000000000081525081526020016040518060400160405280600581526020017f426c61636b00000000000000000000000000000000000000000000000000000081525081526020016040518060400160405280600581526020017f576869746500000000000000000000000000000000000000000000000000000081525081526020016040518060400160405280600581526020017f477265656e000000000000000000000000000000000000000000000000000000815250815250600e906006620001bb92919062000892565b506040518060c001604052806040518060400160405280600581526020017f4170706c6500000000000000000000000000000000000000000000000000000081525081526020016040518060400160405280600781526020017f4e6f6f646c65730000000000000000000000000000000000000000000000000081525081526020016040518060400160405280600481526020017f526963650000000000000000000000000000000000000000000000000000000081525081526020016040518060400160405280600481526020017f506f726b0000000000000000000000000000000000000000000000000000000081525081526020016040518060400160405280600581526020017f537465616b00000000000000000000000000000000000000000000000000000081525081526020016040518060400160405280600881526020017f44756d706c696e67000000000000000000000000000000000000000000000000815250815250600f9060066200033992919062000892565b506040518060c001604052806040518060400160405280600a81526020017f50726f6772616d6d65720000000000000000000000000000000000000000000081525081526020016040518060400160405280600581526020017f4e7572736500000000000000000000000000000000000000000000000000000081525081526020016040518060400160405280600681526020017f506972617465000000000000000000000000000000000000000000000000000081525081526020016040518060400160405280600681526020017f446f63746f72000000000000000000000000000000000000000000000000000081525081526020016040518060400160405280600781526020017f466972656d616e0000000000000000000000000000000000000000000000000081525081526020016040518060400160405280600681526020017f506f6c69636500000000000000000000000000000000000000000000000000008152508152506010906006620004b792919062000892565b506040518060c001604052806040518060400160405280600381526020017f726564000000000000000000000000000000000000000000000000000000000081525081526020016040518060400160405280600781526020017f233038433241380000000000000000000000000000000000000000000000000081525081526020016040518060400160405280600581526020017f626c61636b00000000000000000000000000000000000000000000000000000081525081526020016040518060400160405280600681526020017f79656c6c6f77000000000000000000000000000000000000000000000000000081525081526020016040518060400160405280600481526020017f626c75650000000000000000000000000000000000000000000000000000000081525081526020016040518060400160405280600581526020017f677265656e00000000000000000000000000000000000000000000000000000081525081525060119060066200063592919062000892565b503480156200064357600080fd5b506040518060400160405280600981526020017f5371756172654e465400000000000000000000000000000000000000000000008152506040518060400160405280600681526020017f53515541524500000000000000000000000000000000000000000000000000008152508160009080519060200190620006c892919062000801565b508060019080519060200190620006e192919062000801565b5050506200072f6040518060400160405280601e81526020017f54686973206973206d79204e465420636f6e74726163742e20576f61682100008152506200073560201b620012fa1760201c565b62000ab3565b620007d5816040516024016200074c9190620009c7565b6040516020818303038152906040527f41304fac000000000000000000000000000000000000000000000000000000007bffffffffffffffffffffffffffffffffffffffffffffffffffffffff19166020820180517bffffffffffffffffffffffffffffffffffffffffffffffffffffffff8381831617835250505050620007d860201b60201c565b50565b60008151905060006a636f6e736f6c652e6c6f679050602083016000808483855afa5050505050565b8280546200080f9062000a3d565b90600052602060002090601f0160209004810192826200083357600085556200087f565b82601f106200084e57805160ff19168380011785556200087f565b828001600101855582156200087f579182015b828111156200087e57825182559160200191906001019062000861565b5b5090506200088e9190620008f9565b5090565b828054828255906000526020600020908101928215620008e6579160200282015b82811115620008e5578251829080519060200190620008d492919062000801565b5091602001919060010190620008b3565b5b509050620008f5919062000918565b5090565b5b8082111562000914576000816000905550600101620008fa565b5090565b5b808211156200093c576000818162000932919062000940565b5060010162000919565b5090565b5080546200094e9062000a3d565b6000825580601f1062000962575062000983565b601f016020900490600052602060002090810190620009829190620008f9565b5b50565b60006200099382620009eb565b6200099f8185620009f6565b9350620009b181856020860162000a07565b620009bc8162000aa2565b840191505092915050565b60006020820190508181036000830152620009e3818462000986565b905092915050565b600081519050919050565b600082825260208201905092915050565b60005b8381101562000a2757808201518184015260208101905062000a0a565b8381111562000a37576000848401525b50505050565b6000600282049050600182168062000a5657607f821691505b6020821081141562000a6d5762000a6c62000a73565b5b50919050565b7f4e487b7100000000000000000000000000000000000000000000000000000000600052602260045260246000fd5b6000601f19601f8301169050919050565b6143be8062000ac36000396000f3fe608060405234801561001057600080fd5b50600436106101585760003560e01c80636352211e116100c3578063c4e41b221161007c578063c4e41b2214610411578063c575757a1461042f578063c87b56dd1461045f578063d5abeb011461048f578063de9d132f146104ad578063e985e9c5146104b757610158565b80636352211e1461032b57806370a082311461035b57806395d89b411461038b578063a22cb465146103a9578063b187301f146103c5578063b88d4fde146103f557610158565b806323b872dd1161011557806323b872dd146102335780632de38d681461024f5780632f745c591461027f57806342842e0e146102af5780634f6ccce7146102cb578063514dc8c6146102fb57610158565b806301ffc9a71461015d578063060475901461018d57806306fdde03146101ab578063081812fc146101c9578063095ea7b3146101f957806318160ddd14610215575b600080fd5b61017760048036038101906101729190612e44565b6104e7565b6040516101849190613bd4565b60405180910390f35b6101956104f9565b6040516101a29190613eaf565b60405180910390f35b6101b3610516565b6040516101c09190613bef565b60405180910390f35b6101e360048036038101906101de9190612e96565b6105a8565b6040516101f09190613b44565b60405180910390f35b610213600480360381019061020e9190612e08565b61062d565b005b61021d610745565b60405161022a9190613eaf565b60405180910390f35b61024d60048036038101906102489190612d02565b610752565b005b61026960048036038101906102649190612e96565b6107b2565b6040516102769190613bef565b60405180910390f35b61029960048036038101906102949190612e08565b6108d0565b6040516102a69190613eaf565b60405180910390f35b6102c960048036038101906102c49190612d02565b610975565b005b6102e560048036038101906102e09190612e96565b610995565b6040516102f29190613eaf565b60405180910390f35b61031560048036038101906103109190612e96565b610a2c565b6040516103229190613bef565b60405180910390f35b61034560048036038101906103409190612e96565b610b4a565b6040516103529190613b44565b60405180910390f35b61037560048036038101906103709190612c9d565b610bfc565b6040516103829190613eaf565b60405180910390f35b610393610cb4565b6040516103a09190613bef565b60405180910390f35b6103c360048036038101906103be9190612dcc565b610d46565b005b6103df60048036038101906103da9190612e96565b610d5c565b6040516103ec9190613bef565b60405180910390f35b61040f600480360381019061040a9190612d51565b610e7a565b005b610419610edc565b6040516104269190613eaf565b60405180910390f35b61044960048036038101906104449190612e96565b610eeb565b6040516104569190613bef565b60405180910390f35b61047960048036038101906104749190612e96565b611009565b6040516104869190613bef565b60405180910390f35b61049761101b565b6040516104a49190613eaf565b60405180910390f35b6104b5611021565b005b6104d160048036038101906104cc9190612cc6565b611266565b6040516104de9190613bd4565b60405180910390f35b60006104f282611393565b9050919050565b60006001610507600b61140d565b6105119190613f83565b905090565b6060600080546105259061414e565b80601f01602080910402602001604051908101604052809291908181526020018280546105519061414e565b801561059e5780601f106105735761010080835404028352916020019161059e565b820191906000526020600020905b81548152906001019060200180831161058157829003601f168201915b5050505050905090565b60006105b38261141b565b6105f2576040517f08c379a00000000000000000000000000000000000000000000000000000000081526004016105e990613def565b60405180910390fd5b6004600083815260200190815260200160002060009054906101000a900473ffffffffffffffffffffffffffffffffffffffff169050919050565b600061063882610b4a565b90508073ffffffffffffffffffffffffffffffffffffffff168373ffffffffffffffffffffffffffffffffffffffff1614156106a9576040517f08c379a00000000000000000000000000000000000000000000000000000000081526004016106a090613e4f565b60405180910390fd5b8073ffffffffffffffffffffffffffffffffffffffff166106c8611487565b73ffffffffffffffffffffffffffffffffffffffff1614806106f757506106f6816106f1611487565b611266565b5b610736576040517f08c379a000000000000000000000000000000000000000000000000000000000815260040161072d90613d0f565b60405180910390fd5b610740838361148f565b505050565b6000600980549050905090565b61076361075d611487565b82611548565b6107a2576040517f08c379a000000000000000000000000000000000000000000000000000000000815260040161079990613e6f565b60405180910390fd5b6107ad838383611626565b505050565b606060006107e66107c284611882565b6040516020016107d29190613ade565b604051602081830303815290604052611a2f565b9050600e80549050816107f991906141c9565b9050600e8181548110610835577f4e487b7100000000000000000000000000000000000000000000000000000000600052603260045260246000fd5b90600052602060002001805461084a9061414e565b80601f01602080910402602001604051908101604052809291908181526020018280546108769061414e565b80156108c35780601f10610898576101008083540402835291602001916108c3565b820191906000526020600020905b8154815290600101906020018083116108a657829003601f168201915b5050505050915050919050565b60006108db83610bfc565b821061091c576040517f08c379a000000000000000000000000000000000000000000000000000000000815260040161091390613c4f565b60405180910390fd5b600760008473ffffffffffffffffffffffffffffffffffffffff1673ffffffffffffffffffffffffffffffffffffffff168152602001908152602001600020600083815260200190815260200160002054905092915050565b61099083838360405180602001604052806000815250610e7a565b505050565b600061099f610745565b82106109e0576040517f08c379a00000000000000000000000000000000000000000000000000000000081526004016109d790613e8f565b60405180910390fd5b60098281548110610a1a577f4e487b7100000000000000000000000000000000000000000000000000000000600052603260045260246000fd5b90600052602060002001549050919050565b60606000610a60610a3c84611882565b604051602001610a4c9190613b22565b604051602081830303815290604052611a2f565b905060118054905081610a7391906141c9565b905060118181548110610aaf577f4e487b7100000000000000000000000000000000000000000000000000000000600052603260045260246000fd5b906000526020600020018054610ac49061414e565b80601f0160208091040260200160405190810160405280929190818152602001828054610af09061414e565b8015610b3d5780601f10610b1257610100808354040283529160200191610b3d565b820191906000526020600020905b815481529060010190602001808311610b2057829003601f168201915b5050505050915050919050565b6000806002600084815260200190815260200160002060009054906101000a900473ffffffffffffffffffffffffffffffffffffffff169050600073ffffffffffffffffffffffffffffffffffffffff168173ffffffffffffffffffffffffffffffffffffffff161415610bf3576040517f08c379a0000000000000000000000000000000000000000000000000000000008152600401610bea90613d4f565b60405180910390fd5b80915050919050565b60008073ffffffffffffffffffffffffffffffffffffffff168273ffffffffffffffffffffffffffffffffffffffff161415610c6d576040517f08c379a0000000000000000000000000000000000000000000000000000000008152600401610c6490613d2f565b60405180910390fd5b600360008373ffffffffffffffffffffffffffffffffffffffff1673ffffffffffffffffffffffffffffffffffffffff168152602001908152602001600020549050919050565b606060018054610cc39061414e565b80601f0160208091040260200160405190810160405280929190818152602001828054610cef9061414e565b8015610d3c5780601f10610d1157610100808354040283529160200191610d3c565b820191906000526020600020905b815481529060010190602001808311610d1f57829003601f168201915b5050505050905090565b610d58610d51611487565b8383611a62565b5050565b60606000610d90610d6c84611882565b604051602001610d7c9190613a77565b604051602081830303815290604052611a2f565b9050600f8054905081610da391906141c9565b9050600f8181548110610ddf577f4e487b7100000000000000000000000000000000000000000000000000000000600052603260045260246000fd5b906000526020600020018054610df49061414e565b80601f0160208091040260200160405190810160405280929190818152602001828054610e209061414e565b8015610e6d5780601f10610e4257610100808354040283529160200191610e6d565b820191906000526020600020905b815481529060010190602001808311610e5057829003601f168201915b5050505050915050919050565b610e8b610e85611487565b83611548565b610eca576040517f08c379a0000000000000000000000000000000000000000000000000000000008152600401610ec190613e6f565b60405180910390fd5b610ed684848484611bcf565b50505050565b6000610ee6610745565b905090565b60606000610f1f610efb84611882565b604051602001610f0b9190613a55565b604051602081830303815290604052611a2f565b905060108054905081610f3291906141c9565b905060108181548110610f6e577f4e487b7100000000000000000000000000000000000000000000000000000000600052603260045260246000fd5b906000526020600020018054610f839061414e565b80601f0160208091040260200160405190810160405280929190818152602001828054610faf9061414e565b8015610ffc5780601f10610fd157610100808354040283529160200191610ffc565b820191906000526020600020905b815481529060010190602001808311610fdf57829003601f168201915b5050505050915050919050565b606061101482611c2b565b9050919050565b600c5481565b600061102b610745565b9050600c5460018261103d9190613f83565b111561107e576040517f08c379a000000000000000000000000000000000000000000000000000000000815260040161107590613d8f565b60405180910390fd5b600061108a600b61140d565b90506000611097826107b2565b905060006110a483610d5c565b905060006110b184610eeb565b905060008383836040516020016110ca939291906139f5565b60405160208183030381529060405290506000600d826040516020016110f1929190613a26565b604051602081830303815290604052905060006111368361111184611d7d565b604051602001611122929190613a99565b604051602081830303815290604052611d7d565b905060008160405160200161114b9190613b00565b604051602081830303815290604052905061119a6040518060400160405280601581526020017f0a2d2d2d2d2d2d2d2d2d2d2d2d2d2d2d2d2d2d2d2d00000000000000000000008152506112fa565b6111a3816112fa565b6111e16040518060400160405280601581526020017f2d2d2d2d2d2d2d2d2d2d2d2d2d2d2d2d2d2d2d2d0a00000000000000000000008152506112fa565b6111eb3389611f3b565b6111f58882611f59565b6111ff600b611fcd565b611222604051806060016040528060258152602001614324602591398933611fe3565b7febb98688741ffa4c7589bf325de30cf7becb63de567842e1ccdb6cb949fdc82c3389604051611253929190613bab565b60405180910390a1505050505050505050565b6000600560008473ffffffffffffffffffffffffffffffffffffffff1673ffffffffffffffffffffffffffffffffffffffff16815260200190815260200160002060008373ffffffffffffffffffffffffffffffffffffffff1673ffffffffffffffffffffffffffffffffffffffff16815260200190815260200160002060009054906101000a900460ff16905092915050565b6113908160405160240161130e9190613bef565b6040516020818303038152906040527f41304fac000000000000000000000000000000000000000000000000000000007bffffffffffffffffffffffffffffffffffffffffffffffffffffffff19166020820180517bffffffffffffffffffffffffffffffffffffffffffffffffffffffff8381831617835250505050612082565b50565b60007f780e9d63000000000000000000000000000000000000000000000000000000007bffffffffffffffffffffffffffffffffffffffffffffffffffffffff1916827bffffffffffffffffffffffffffffffffffffffffffffffffffffffff191614806114065750611405826120ab565b5b9050919050565b600081600001549050919050565b60008073ffffffffffffffffffffffffffffffffffffffff166002600084815260200190815260200160002060009054906101000a900473ffffffffffffffffffffffffffffffffffffffff1673ffffffffffffffffffffffffffffffffffffffff1614159050919050565b600033905090565b816004600083815260200190815260200160002060006101000a81548173ffffffffffffffffffffffffffffffffffffffff021916908373ffffffffffffffffffffffffffffffffffffffff160217905550808273ffffffffffffffffffffffffffffffffffffffff1661150283610b4a565b73ffffffffffffffffffffffffffffffffffffffff167f8c5be1e5ebec7d5bd14f71427d1e84f3dd0314c0f7b2291e5b200ac8c7c3b92560405160405180910390a45050565b60006115538261141b565b611592576040517f08c379a000000000000000000000000000000000000000000000000000000000815260040161158990613cef565b60405180910390fd5b600061159d83610b4a565b90508073ffffffffffffffffffffffffffffffffffffffff168473ffffffffffffffffffffffffffffffffffffffff16148061160c57508373ffffffffffffffffffffffffffffffffffffffff166115f4846105a8565b73ffffffffffffffffffffffffffffffffffffffff16145b8061161d575061161c8185611266565b5b91505092915050565b8273ffffffffffffffffffffffffffffffffffffffff1661164682610b4a565b73ffffffffffffffffffffffffffffffffffffffff161461169c576040517f08c379a000000000000000000000000000000000000000000000000000000000815260040161169390613e0f565b60405180910390fd5b600073ffffffffffffffffffffffffffffffffffffffff168273ffffffffffffffffffffffffffffffffffffffff16141561170c576040517f08c379a000000000000000000000000000000000000000000000000000000000815260040161170390613caf565b60405180910390fd5b61171783838361218d565b61172260008261148f565b6001600360008573ffffffffffffffffffffffffffffffffffffffff1673ffffffffffffffffffffffffffffffffffffffff16815260200190815260200160002060008282546117729190614064565b925050819055506001600360008473ffffffffffffffffffffffffffffffffffffffff1673ffffffffffffffffffffffffffffffffffffffff16815260200190815260200160002060008282546117c99190613f83565b92505081905550816002600083815260200190815260200160002060006101000a81548173ffffffffffffffffffffffffffffffffffffffff021916908373ffffffffffffffffffffffffffffffffffffffff160217905550808273ffffffffffffffffffffffffffffffffffffffff168473ffffffffffffffffffffffffffffffffffffffff167fddf252ad1be2c89b69c2b068fc378daa952ba7f163c4a11628f55a4df523b3ef60405160405180910390a4505050565b606060008214156118ca576040518060400160405280600181526020017f30000000000000000000000000000000000000000000000000000000000000008152509050611a2a565b600082905060005b600082146118fc5780806118e590614180565b915050600a826118f59190613fd9565b91506118d2565b60008167ffffffffffffffff81111561193e577f4e487b7100000000000000000000000000000000000000000000000000000000600052604160045260246000fd5b6040519080825280601f01601f1916602001820160405280156119705781602001600182028036833780820191505090505b5090505b60008514611a23576001826119899190614064565b9150600a8561199891906141c9565b60306119a49190613f83565b60f81b8183815181106119e0577f4e487b7100000000000000000000000000000000000000000000000000000000600052603260045260246000fd5b60200101907effffffffffffffffffffffffffffffffffffffffffffffffffffffffffffff1916908160001a905350600a85611a1c9190613fd9565b9450611974565b8093505050505b919050565b600081604051602001611a4291906139ba565b6040516020818303038152906040528051906020012060001c9050919050565b8173ffffffffffffffffffffffffffffffffffffffff168373ffffffffffffffffffffffffffffffffffffffff161415611ad1576040517f08c379a0000000000000000000000000000000000000000000000000000000008152600401611ac890613ccf565b60405180910390fd5b80600560008573ffffffffffffffffffffffffffffffffffffffff1673ffffffffffffffffffffffffffffffffffffffff16815260200190815260200160002060008473ffffffffffffffffffffffffffffffffffffffff1673ffffffffffffffffffffffffffffffffffffffff16815260200190815260200160002060006101000a81548160ff0219169083151502179055508173ffffffffffffffffffffffffffffffffffffffff168373ffffffffffffffffffffffffffffffffffffffff167f17307eab39ab6107e8899845ad3d59bd9653f200f220920489ca2b5937696c3183604051611bc29190613bd4565b60405180910390a3505050565b611bda848484611626565b611be68484848461219d565b611c25576040517f08c379a0000000000000000000000000000000000000000000000000000000008152600401611c1c90613c6f565b60405180910390fd5b50505050565b6060611c368261141b565b611c75576040517f08c379a0000000000000000000000000000000000000000000000000000000008152600401611c6c90613dcf565b60405180910390fd5b6000600660008481526020019081526020016000208054611c959061414e565b80601f0160208091040260200160405190810160405280929190818152602001828054611cc19061414e565b8015611d0e5780601f10611ce357610100808354040283529160200191611d0e565b820191906000526020600020905b815481529060010190602001808311611cf157829003601f168201915b505050505090506000611d1f612334565b9050600081511415611d35578192505050611d78565b600082511115611d6a578082604051602001611d529291906139d1565b60405160208183030381529060405292505050611d78565b611d738461234b565b925050505b919050565b60606000825190506000811415611da65760405180602001604052806000815250915050611f36565b60006003600283611db79190613f83565b611dc19190613fd9565b6004611dcd919061400a565b90506000602082611dde9190613f83565b67ffffffffffffffff811115611e1d577f4e487b7100000000000000000000000000000000000000000000000000000000600052604160045260246000fd5b6040519080825280601f01601f191660200182016040528015611e4f5781602001600182028036833780820191505090505b5090506000604051806060016040528060408152602001614349604091399050600181016020830160005b86811015611ef35760038101905062ffffff818a015116603f8160121c168401518060081b905060ff603f83600c1c1686015116810190508060081b905060ff603f8360061c1686015116810190508060081b905060ff603f831686015116810190508060e01b90508084526004840193505050611e7a565b506003860660018114611f0d5760028114611f1d57611f28565b613d3d60f01b6002830352611f28565b603d60f81b60018303525b508484525050819450505050505b919050565b611f558282604051806020016040528060008152506123f2565b5050565b611f628261141b565b611fa1576040517f08c379a0000000000000000000000000000000000000000000000000000000008152600401611f9890613d6f565b60405180910390fd5b80600660008481526020019081526020016000209080519060200190611fc8929190612b29565b505050565b6001816000016000828254019250508190555050565b61207d838383604051602401611ffb93929190613c11565b6040516020818303038152906040527fe3849f79000000000000000000000000000000000000000000000000000000007bffffffffffffffffffffffffffffffffffffffffffffffffffffffff19166020820180517bffffffffffffffffffffffffffffffffffffffffffffffffffffffff8381831617835250505050612082565b505050565b60008151905060006a636f6e736f6c652e6c6f679050602083016000808483855afa5050505050565b60007f80ac58cd000000000000000000000000000000000000000000000000000000007bffffffffffffffffffffffffffffffffffffffffffffffffffffffff1916827bffffffffffffffffffffffffffffffffffffffffffffffffffffffff1916148061217657507f5b5e139f000000000000000000000000000000000000000000000000000000007bffffffffffffffffffffffffffffffffffffffffffffffffffffffff1916827bffffffffffffffffffffffffffffffffffffffffffffffffffffffff1916145b8061218657506121858261244d565b5b9050919050565b6121988383836124b7565b505050565b60006121be8473ffffffffffffffffffffffffffffffffffffffff166125cb565b15612327578373ffffffffffffffffffffffffffffffffffffffff1663150b7a026121e7611487565b8786866040518563ffffffff1660e01b81526004016122099493929190613b5f565b602060405180830381600087803b15801561222357600080fd5b505af192505050801561225457506040513d601f19601f820116820180604052508101906122519190612e6d565b60015b6122d7573d8060008114612284576040519150601f19603f3d011682016040523d82523d6000602084013e612289565b606091505b506000815114156122cf576040517f08c379a00000000000000000000000000000000000000000000000000000000081526004016122c690613c6f565b60405180910390fd5b805181602001fd5b63150b7a0260e01b7bffffffffffffffffffffffffffffffffffffffffffffffffffffffff1916817bffffffffffffffffffffffffffffffffffffffffffffffffffffffff19161491505061232c565b600190505b949350505050565b606060405180602001604052806000815250905090565b60606123568261141b565b612395576040517f08c379a000000000000000000000000000000000000000000000000000000000815260040161238c90613e2f565b60405180910390fd5b600061239f612334565b905060008151116123bf57604051806020016040528060008152506123ea565b806123c984611882565b6040516020016123da9291906139d1565b6040516020818303038152906040525b915050919050565b6123fc83836125de565b612409600084848461219d565b612448576040517f08c379a000000000000000000000000000000000000000000000000000000000815260040161243f90613c6f565b60405180910390fd5b505050565b60007f01ffc9a7000000000000000000000000000000000000000000000000000000007bffffffffffffffffffffffffffffffffffffffffffffffffffffffff1916827bffffffffffffffffffffffffffffffffffffffffffffffffffffffff1916149050919050565b6124c28383836127ac565b600073ffffffffffffffffffffffffffffffffffffffff168373ffffffffffffffffffffffffffffffffffffffff16141561250557612500816127b1565b612544565b8173ffffffffffffffffffffffffffffffffffffffff168373ffffffffffffffffffffffffffffffffffffffff16146125435761254283826127fa565b5b5b600073ffffffffffffffffffffffffffffffffffffffff168273ffffffffffffffffffffffffffffffffffffffff1614156125875761258281612967565b6125c6565b8273ffffffffffffffffffffffffffffffffffffffff168273ffffffffffffffffffffffffffffffffffffffff16146125c5576125c48282612aaa565b5b5b505050565b600080823b905060008111915050919050565b600073ffffffffffffffffffffffffffffffffffffffff168273ffffffffffffffffffffffffffffffffffffffff16141561264e576040517f08c379a000000000000000000000000000000000000000000000000000000000815260040161264590613daf565b60405180910390fd5b6126578161141b565b15612697576040517f08c379a000000000000000000000000000000000000000000000000000000000815260040161268e90613c8f565b60405180910390fd5b6126a36000838361218d565b6001600360008473ffffffffffffffffffffffffffffffffffffffff1673ffffffffffffffffffffffffffffffffffffffff16815260200190815260200160002060008282546126f39190613f83565b92505081905550816002600083815260200190815260200160002060006101000a81548173ffffffffffffffffffffffffffffffffffffffff021916908373ffffffffffffffffffffffffffffffffffffffff160217905550808273ffffffffffffffffffffffffffffffffffffffff16600073ffffffffffffffffffffffffffffffffffffffff167fddf252ad1be2c89b69c2b068fc378daa952ba7f163c4a11628f55a4df523b3ef60405160405180910390a45050565b505050565b600980549050600a600083815260200190815260200160002081905550600981908060018154018082558091505060019003906000526020600020016000909190919091505550565b6000600161280784610bfc565b6128119190614064565b90506000600860008481526020019081526020016000205490508181146128f6576000600760008673ffffffffffffffffffffffffffffffffffffffff1673ffffffffffffffffffffffffffffffffffffffff168152602001908152602001600020600084815260200190815260200160002054905080600760008773ffffffffffffffffffffffffffffffffffffffff1673ffffffffffffffffffffffffffffffffffffffff168152602001908152602001600020600084815260200190815260200160002081905550816008600083815260200190815260200160002081905550505b6008600084815260200190815260200160002060009055600760008573ffffffffffffffffffffffffffffffffffffffff1673ffffffffffffffffffffffffffffffffffffffff16815260200190815260200160002060008381526020019081526020016000206000905550505050565b6000600160098054905061297b9190614064565b90506000600a60008481526020019081526020016000205490506000600983815481106129d1577f4e487b7100000000000000000000000000000000000000000000000000000000600052603260045260246000fd5b906000526020600020015490508060098381548110612a19577f4e487b7100000000000000000000000000000000000000000000000000000000600052603260045260246000fd5b906000526020600020018190555081600a600083815260200190815260200160002081905550600a6000858152602001908152602001600020600090556009805480612a8e577f4e487b7100000000000000000000000000000000000000000000000000000000600052603160045260246000fd5b6001900381819060005260206000200160009055905550505050565b6000612ab583610bfc565b905081600760008573ffffffffffffffffffffffffffffffffffffffff1673ffffffffffffffffffffffffffffffffffffffff168152602001908152602001600020600083815260200190815260200160002081905550806008600084815260200190815260200160002081905550505050565b828054612b359061414e565b90600052602060002090601f016020900481019282612b575760008555612b9e565b82601f10612b7057805160ff1916838001178555612b9e565b82800160010185558215612b9e579182015b82811115612b9d578251825591602001919060010190612b82565b5b509050612bab9190612baf565b5090565b5b80821115612bc8576000816000905550600101612bb0565b5090565b6000612bdf612bda84613efb565b613eca565b905082815260208101848484011115612bf757600080fd5b612c0284828561410c565b509392505050565b600081359050612c19816142c7565b92915050565b600081359050612c2e816142de565b92915050565b600081359050612c43816142f5565b92915050565b600081519050612c58816142f5565b92915050565b600082601f830112612c6f57600080fd5b8135612c7f848260208601612bcc565b91505092915050565b600081359050612c978161430c565b92915050565b600060208284031215612caf57600080fd5b6000612cbd84828501612c0a565b91505092915050565b60008060408385031215612cd957600080fd5b6000612ce785828601612c0a565b9250506020612cf885828601612c0a565b9150509250929050565b600080600060608486031215612d1757600080fd5b6000612d2586828701612c0a565b9350506020612d3686828701612c0a565b9250506040612d4786828701612c88565b9150509250925092565b60008060008060808587031215612d6757600080fd5b6000612d7587828801612c0a565b9450506020612d8687828801612c0a565b9350506040612d9787828801612c88565b925050606085013567ffffffffffffffff811115612db457600080fd5b612dc087828801612c5e565b91505092959194509250565b60008060408385031215612ddf57600080fd5b6000612ded85828601612c0a565b9250506020612dfe85828601612c1f565b9150509250929050565b60008060408385031215612e1b57600080fd5b6000612e2985828601612c0a565b9250506020612e3a85828601612c88565b9150509250929050565b600060208284031215612e5657600080fd5b6000612e6484828501612c34565b91505092915050565b600060208284031215612e7f57600080fd5b6000612e8d84828501612c49565b91505092915050565b600060208284031215612ea857600080fd5b6000612eb684828501612c88565b91505092915050565b612ec881614098565b82525050565b612ed7816140aa565b82525050565b6000612ee882613f40565b612ef28185613f56565b9350612f0281856020860161411b565b612f0b816142b6565b840191505092915050565b6000612f2182613f4b565b612f2b8185613f67565b9350612f3b81856020860161411b565b612f44816142b6565b840191505092915050565b6000612f5a82613f4b565b612f648185613f78565b9350612f7481856020860161411b565b80840191505092915050565b60008154612f8d8161414e565b612f978186613f78565b94506001821660008114612fb25760018114612fc357612ff6565b60ff19831686528186019350612ff6565b612fcc85613f2b565b60005b83811015612fee57815481890152600182019150602081019050612fcf565b838801955050505b50505092915050565b600061300c602b83613f67565b91507f455243373231456e756d657261626c653a206f776e657220696e646578206f7560008301527f74206f6620626f756e64730000000000000000000000000000000000000000006020830152604082019050919050565b6000613072603283613f67565b91507f4552433732313a207472616e7366657220746f206e6f6e20455243373231526560008301527f63656976657220696d706c656d656e74657200000000000000000000000000006020830152604082019050919050565b60006130d8601c83613f67565b91507f4552433732313a20746f6b656e20616c7265616479206d696e746564000000006000830152602082019050919050565b6000613118600a83613f78565b91507f54484952445f574f5244000000000000000000000000000000000000000000006000830152600a82019050919050565b6000613158602483613f67565b91507f4552433732313a207472616e7366657220746f20746865207a65726f2061646460008301527f72657373000000000000000000000000000000000000000000000000000000006020830152604082019050919050565b60006131be601983613f67565b91507f4552433732313a20617070726f766520746f2063616c6c6572000000000000006000830152602082019050919050565b60006131fe606383613f78565b91507f222c20226465736372697074696f6e223a20224120686967686c79206163636c60008301527f61696d656420636f6c6c656374696f6e206f6620737175617265732e222c202260208301527f696d616765223a2022646174613a696d6167652f7376672b786d6c3b6261736560408301527f36342c00000000000000000000000000000000000000000000000000000000006060830152606382019050919050565b60006132b0600b83613f78565b91507f5345434f4e445f574f52440000000000000000000000000000000000000000006000830152600b82019050919050565b60006132f0602c83613f67565b91507f4552433732313a206f70657261746f7220717565727920666f72206e6f6e657860008301527f697374656e7420746f6b656e00000000000000000000000000000000000000006020830152604082019050919050565b6000613356600d83613f78565b91507f3c2f746578743e3c2f7376673e000000000000000000000000000000000000006000830152600d82019050919050565b6000613396603883613f67565b91507f4552433732313a20617070726f76652063616c6c6572206973206e6f74206f7760008301527f6e6572206e6f7220617070726f76656420666f7220616c6c00000000000000006020830152604082019050919050565b60006133fc602a83613f67565b91507f4552433732313a2062616c616e636520717565727920666f7220746865207a6560008301527f726f2061646472657373000000000000000000000000000000000000000000006020830152604082019050919050565b6000613462602983613f67565b91507f4552433732313a206f776e657220717565727920666f72206e6f6e657869737460008301527f656e7420746f6b656e00000000000000000000000000000000000000000000006020830152604082019050919050565b60006134c8602e83613f67565b91507f45524337323155524953746f726167653a2055524920736574206f66206e6f6e60008301527f6578697374656e7420746f6b656e0000000000000000000000000000000000006020830152604082019050919050565b600061352e601683613f67565b91507f6d6178204e4654206c696d6974206578636565646564000000000000000000006000830152602082019050919050565b600061356e600283613f78565b91507f227d0000000000000000000000000000000000000000000000000000000000006000830152600282019050919050565b60006135ae602083613f67565b91507f4552433732313a206d696e7420746f20746865207a65726f20616464726573736000830152602082019050919050565b60006135ee603183613f67565b91507f45524337323155524953746f726167653a2055524920717565727920666f722060008301527f6e6f6e6578697374656e7420746f6b656e0000000000000000000000000000006020830152604082019050919050565b6000613654602c83613f67565b91507f4552433732313a20617070726f76656420717565727920666f72206e6f6e657860008301527f697374656e7420746f6b656e00000000000000000000000000000000000000006020830152604082019050919050565b60006136ba602983613f67565b91507f4552433732313a207472616e73666572206f6620746f6b656e2074686174206960008301527f73206e6f74206f776e00000000000000000000000000000000000000000000006020830152604082019050919050565b6000613720602f83613f67565b91507f4552433732314d657461646174613a2055524920717565727920666f72206e6f60008301527f6e6578697374656e7420746f6b656e00000000000000000000000000000000006020830152604082019050919050565b6000613786600a83613f78565b91507f7b226e616d65223a2022000000000000000000000000000000000000000000006000830152600a82019050919050565b60006137c6602183613f67565b91507f4552433732313a20617070726f76616c20746f2063757272656e74206f776e6560008301527f72000000000000000000000000000000000000000000000000000000000000006020830152604082019050919050565b600061382c600a83613f78565b91507f46495253545f574f5244000000000000000000000000000000000000000000006000830152600a82019050919050565b600061386c601d83613f78565b91507f646174613a6170706c69636174696f6e2f6a736f6e3b6261736536342c0000006000830152601d82019050919050565b60006138ac603183613f67565b91507f4552433732313a207472616e736665722063616c6c6572206973206e6f74206f60008301527f776e6572206e6f7220617070726f7665640000000000000000000000000000006020830152604082019050919050565b6000613912602c83613f67565b91507f455243373231456e756d657261626c653a20676c6f62616c20696e646578206f60008301527f7574206f6620626f756e647300000000000000000000000000000000000000006020830152604082019050919050565b6000613978600583613f78565b91507f434f4c4f520000000000000000000000000000000000000000000000000000006000830152600582019050919050565b6139b481614102565b82525050565b60006139c68284612f4f565b915081905092915050565b60006139dd8285612f4f565b91506139e98284612f4f565b91508190509392505050565b6000613a018286612f4f565b9150613a0d8285612f4f565b9150613a198284612f4f565b9150819050949350505050565b6000613a328285612f80565b9150613a3e8284612f4f565b9150613a4982613349565b91508190509392505050565b6000613a608261310b565b9150613a6c8284612f4f565b915081905092915050565b6000613a82826132a3565b9150613a8e8284612f4f565b915081905092915050565b6000613aa482613779565b9150613ab08285612f4f565b9150613abb826131f1565b9150613ac78284612f4f565b9150613ad282613561565b91508190509392505050565b6000613ae98261381f565b9150613af58284612f4f565b915081905092915050565b6000613b0b8261385f565b9150613b178284612f4f565b915081905092915050565b6000613b2d8261396b565b9150613b398284612f4f565b915081905092915050565b6000602082019050613b596000830184612ebf565b92915050565b6000608082019050613b746000830187612ebf565b613b816020830186612ebf565b613b8e60408301856139ab565b8181036060830152613ba08184612edd565b905095945050505050565b6000604082019050613bc06000830185612ebf565b613bcd60208301846139ab565b9392505050565b6000602082019050613be96000830184612ece565b92915050565b60006020820190508181036000830152613c098184612f16565b905092915050565b60006060820190508181036000830152613c2b8186612f16565b9050613c3a60208301856139ab565b613c476040830184612ebf565b949350505050565b60006020820190508181036000830152613c6881612fff565b9050919050565b60006020820190508181036000830152613c8881613065565b9050919050565b60006020820190508181036000830152613ca8816130cb565b9050919050565b60006020820190508181036000830152613cc88161314b565b9050919050565b60006020820190508181036000830152613ce8816131b1565b9050919050565b60006020820190508181036000830152613d08816132e3565b9050919050565b60006020820190508181036000830152613d2881613389565b9050919050565b60006020820190508181036000830152613d48816133ef565b9050919050565b60006020820190508181036000830152613d6881613455565b9050919050565b60006020820190508181036000830152613d88816134bb565b9050919050565b60006020820190508181036000830152613da881613521565b9050919050565b60006020820190508181036000830152613dc8816135a1565b9050919050565b60006020820190508181036000830152613de8816135e1565b9050919050565b60006020820190508181036000830152613e0881613647565b9050919050565b60006020820190508181036000830152613e28816136ad565b9050919050565b60006020820190508181036000830152613e4881613713565b9050919050565b60006020820190508181036000830152613e68816137b9565b9050919050565b60006020820190508181036000830152613e888161389f565b9050919050565b60006020820190508181036000830152613ea881613905565b9050919050565b6000602082019050613ec460008301846139ab565b92915050565b6000604051905081810181811067ffffffffffffffff82111715613ef157613ef0614287565b5b8060405250919050565b600067ffffffffffffffff821115613f1657613f15614287565b5b601f19601f8301169050602081019050919050565b60008190508160005260206000209050919050565b600081519050919050565b600081519050919050565b600082825260208201905092915050565b600082825260208201905092915050565b600081905092915050565b6000613f8e82614102565b9150613f9983614102565b9250827fffffffffffffffffffffffffffffffffffffffffffffffffffffffffffffffff03821115613fce57613fcd6141fa565b5b828201905092915050565b6000613fe482614102565b9150613fef83614102565b925082613fff57613ffe614229565b5b828204905092915050565b600061401582614102565b915061402083614102565b9250817fffffffffffffffffffffffffffffffffffffffffffffffffffffffffffffffff0483118215151615614059576140586141fa565b5b828202905092915050565b600061406f82614102565b915061407a83614102565b92508282101561408d5761408c6141fa565b5b828203905092915050565b60006140a3826140e2565b9050919050565b60008115159050919050565b60007fffffffff0000000000000000000000000000000000000000000000000000000082169050919050565b600073ffffffffffffffffffffffffffffffffffffffff82169050919050565b6000819050919050565b82818337600083830152505050565b60005b8381101561413957808201518184015260208101905061411e565b83811115614148576000848401525b50505050565b6000600282049050600182168061416657607f821691505b6020821081141561417a57614179614258565b5b50919050565b600061418b82614102565b91507fffffffffffffffffffffffffffffffffffffffffffffffffffffffffffffffff8214156141be576141bd6141fa565b5b600182019050919050565b60006141d482614102565b91506141df83614102565b9250826141ef576141ee614229565b5b828206905092915050565b7f4e487b7100000000000000000000000000000000000000000000000000000000600052601160045260246000fd5b7f4e487b7100000000000000000000000000000000000000000000000000000000600052601260045260246000fd5b7f4e487b7100000000000000000000000000000000000000000000000000000000600052602260045260246000fd5b7f4e487b7100000000000000000000000000000000000000000000000000000000600052604160045260246000fd5b6000601f19601f8301169050919050565b6142d081614098565b81146142db57600080fd5b50565b6142e7816140aa565b81146142f257600080fd5b50565b6142fe816140b6565b811461430957600080fd5b50565b61431581614102565b811461432057600080fd5b5056fe416e204e465420772f20494420257320686173206265656e206d696e74656420746f2025734142434445464748494a4b4c4d4e4f505152535455565758595a6162636465666768696a6b6c6d6e6f707172737475767778797a303132333435363738392b2fa26469706673582212202755e78d547166e206436b89119978a61897107887d60b6a24429f7c6d22ba6b64736f6c634300080000333c73766720786d6c6e733d27687474703a2f2f7777772e77332e6f72672f323030302f73766727207072657365727665417370656374526174696f3d27784d696e594d696e206d656574272076696577426f783d273020302033353020333530273e3c7374796c653e2e62617365207b2066696c6c3a2077686974653b20666f6e742d66616d696c793a2073657269663b20666f6e742d73697a653a20323470783b207d3c2f7374796c653e3c726563742077696474683d273130302527206865696768743d2731303025272066696c6c3d27626c61636b27202f3e3c7465787420783d273530252720793d273530252720636c6173733d27626173652720646f6d696e616e742d626173656c696e653d276d6964646c652720746578742d616e63686f723d276d6964646c65273e",
  "linkReferences": {},
  "deployedLinkReferences": {}
}